:020000040000FA
:020000000B28CB
:10000800DE00030E8312A0000A08A100DA280C28DB
:10001800EA20AB00EB20AC00EC20AD00ED20AE00F8
:10002800AF01B001B101830119280730831299008B
:10003800083083168500831285010030C52083129D
:10004800A5002508B200320A031D2B282C283028C9
:10005800B201A201003099204E308312A600EB3085
:10006800A500A50B3528A60B35280C30831685006E
:10007800831232082B3E84008313000885008519FB
:10008800462847284C280330A7000030A8005028ED
:100098000230A7000030A8002708A5002508B100F5
:1000A8008B108B170B130B168316011383122F0853
:1000B80030040319602861285A28AF01B0011430B0
:1000C800A6007930A500A50B6728A60B67286C2821
:1000D8008312310832020318722873287B283208E9
:1000E800013EA900003003180130AA007D28A901AB
:1000F800AA012908A5002508B2003208A50025088C
:10010800A2000030992027308312A600F530A50000
:10011800A50B8C28A60B8C28831232082B3E840052
:100128008313000885005A280B288312A40083161D
:100138009C189F28A0289B288312240883169B00BC
:100148008312220883169A003F308312A3002308E3
:1001580083169C05831203108B1FB328B428B52877
:1001680003148B1383161C1555309D00AA309D006F
:100178009C141C118312031CC228C328C4288B1783
:1001880008008312A300640083169C18CC28CD288D
:10019800C7288312230883169B003F308312A200CE
:1001A800220883169C051C141A0808008B1CDD28DD
:1001B800DE28E3288B100130AF000030B0002108A2
:1001C8008A00200E8300DE0E5E0E0900043415340A
:0401D800263437345E
:02400E009431EB
:00000001FF
